:100D85002D2D2D524649442042617365642D2D2D2C
:100D950000417474656E64616E63652050726F6A9C
:100DA500003138424543303334360053616861724F
:100DB5007368205368756B6C61005363616E2059CD
:100DC5006F757220436172643A0052666964204E01
:100DD5006F2E2069733A0031303033354144383550
:100DE500364331002041747474656E646564002077
:100DF500456E672E4D6F68616D65642000417474A2
:100E05006E642E204E6F2E3A200025640031363058
:100E15003041444333363941310020417474656EA5
:100E25006465640020422E4F62616D612000313699
:100E3500303041424344313437410020442E6A2E3C
:100E45005452554D5020004361726420646F6E27E3
:100E5500742065786973740054727920416E6F74DB
:090E6500686572204361726400AB
:0310FC00013600BA
:100FF700D2A4C2A37F2C7E01121009C2A4C2A37F70
:02100700C81E01
:10100900E4FDFCC3ED9FEE6480F8EC648098501514
:10101900E4FBFA0BBB00010ABA04F8BBFBF50DBDF2
:0510290000010C80DE57
:01102E00229F
:1010C700D290C291D2927F057E00121009C292225D
:1010B400A907E954F0F5901210C7E9C454F0F5906B
:0310C4000210C750
:0E10D700C290D2927F057E00121009C29222B2
:091084007FC87E001210097F01F3
:10108D00A907E954F0F5901210D7E9C454F0F59082
:03109D000210D767
:0B102F007FC012108D7BFF7A0E79024B
:10103A008B088A09890AAB08AA09A90A120E6EFF47
:10104A0060101210B47401250AF50AE43509F5098D
:03105A0080E4220D
:1010A0007F0212108D7F2812108D7F0E12108D7FFF
:0410B0000102108D9C
:0C10E500758920759850758DFDD28E2203
:0B10F1003098FD859936C298AF36227A
:100B5C00D2A61210E51210A07BFF7A0D7985121027
:100B6C003A7FC012108D7BFF7A0D799612103A7F66
:100B7C00F47E011210091210A07BFF7A0D79A612D7
:100B8C00103A7FC012108D7BFF7A0D79B012103A9B
:100B9C007F907E011210097F0112108D7BFF7A0D60
:100BAC0079BF12103A7FC012108DE4F569F569AF68
:100BBC0069EF3395E0FEC3EF940CEE6480948050A3
:100BCC000E1210F174232569F8A607056980E074EC
:100BDC00232569F8E4F67F0112108D7BFF7A0D79DD
:100BEC00CF12103A7FC012108DE4F569AF69EF3364
:100BFC0095E0FEC3EF940CEE64809480500D74234A
:100C0C002FF8E6FF1210B4056980E17F647E0012B4
:100C1C001009750BFF750C0D750DDC750E00750F3D
:100C2C000C7B007A007923120F88EF3395E04F701C
:100C3C00500531E531700205307F0112108D7BFFBC
:100C4C007A0D79E912103A1210847BFF7A0D79F43F
:100C5C0012103A12102F750BFF750C0E750D0F85B7
:100C6C00300E85310F7B007A00792212085C7B00F4
:100C7C007A00792212103A120FF7C2A4D2A3020BF7
:100C8C00A3750BFF750C0E750D12750E00750F0C00
:100C9C007B007A007923120F88EF3395E04F703682
:100CAC000533E533700205327F0112108D7BFF7A1C
:100CBC000E791F12103A1210847BFF7A0E792912CA
:100CCC00103A12102F750BFF750C0E750D0F853227
:100CDC000E85330F8053750BFF750C0E750D337528
:100CEC000E00750F0C7B007A007923120F88EF33FE
:100CFC0095E04F705A0535E535700205347F0112C9
:100D0C00108D7BFF7A0E791F12103A1210847BFF24
:100D1C007A0E794012103A12102F750BFF750C0ECB
:100D2C00750D0F85340E85350F7B007A00792212F4
:100D3C00085C7B007A00792212103A120FF7C2A4D9
:100D4C00D2A37F2C0E121009C2A4C2A3020BA37F44
:100D5C000112108D7BFF7A0E794C12103A7FC01263
:100D6C00108D7BFF7A0E795D12103AC2A67F2C7E15
:090D7C0001121009D2A6020BA31A
:03000000020EFCF1
:0C0EFC00787FE4F6D8FD758169020F4391
:100E6E00BB010689828A83E0225002E722BBFE0282
:090E7E00E32289828A83E49322B5
:10080000E517240BF8E60517227808300702780B65
:10081000E475F001120EC6020E6E2000EB7F2ED2A0
:10082000008018EF540F2490D43440D4FF30040BD0
:10083000EF24BFB41A0050032461FFE518600215CD
:1008400018051BE51B7002051A30070D7808E475C2
:10085000F001120EC6EF020EB402105D7403D2074F
:100860008003E4C207F5178B088A09890AE4F518A2
:10087000F51AF51BE51860077F2012083B80F57517
:1008800019FFC201C200C202C203C205C206C208E9
:10089000120809FF700D3007057F0012084CAF1BCE
:1008A000AE1A22B4255FC2D5C204120809FF24D0B3
:1008B000B40A00501A75F00A781830D50508B6FF4A
:1008C0000106C6A426F620D5047002D20380D924DE
:1008D000CFB41A00EF5004C2E5D204020A4CD20190
:1008E00080C6D20080C0D20280BCD2D580BAD205E8
:1008F00080B47F2012083B2002077401B518004025
:10090000F1120800FF12083B020874D208D20680D8
:1009100095120800FB120800FA120800F94A4B7001
:1009200006791D7A0B7BFF20022EE518602A7E00D7
:100930008E82758300120E8760060EEE651970F0C8
:10094000C2D5EBC0E0EAC0E0E9C0E0EE120A93D005
:10095000E0F9D0E0FAD0E0FB120E6EFF60AAEBC027
:10096000E0EAC0E0E9C0E012083BD0E02401F9D0A1
:10097000E03400FAD0E0FBE5190460DCD519D98039
:10098000877BFF7A0A798FD202809C791080027966
:1009900008C206C2088008D2D5790A8004790AC242
:1009A000D5E519047002F519E4FAFDFEFF120800FE
:1009B000FC7B08200113120800FD7B1030000A1296
:1009C0000800FE120800FF7B20EC3382D592D55040
:1009D00013C3E43000069FFFE49EFEE42001039D64
:1009E000FDE49CFCE4CBF8C201EC700CCFCECDCC86
:1009F000E824F8F870F38017C3EF33FFEE33FEED11
:100A000033FDEC33FCEB33FB994002FB0FD8E9EBF1
:100A1000300105F8D0E0C448B201C0E00AEC4D4E08
:100A20004F78207B0070C2EAB5190040BCC0E012CC
:100A30000A95D0F0D0E0200104C4C0E0C4B201C0E7
:100A4000F0120824D0F0D5F0EB020874120ED6098B
:100A50001153098B5808E24C08DE42098F4F099761
:0F0A60004409974908F743099D550981460981C3
:100A6F00450981470B3D5008E62D08EA2E090D2B4D
:100A7F0008EE23090B200B262A08A64800000905BB
:100A8F003F3F3F00790AA2D5200314300509B91062
:100A9F00020404B9080104A2D52006025001042063
:100AAF0002689202B518005034C0E07F203003195D
:100ABF007F30A20272067205500F120AECC202C2F8
:100ACF0006C205C2087F30800F300503E9C0E0126F
:100ADF00083B300503D0E0F9D0E0B518CC3005174E
:100AEF007F30B9100C12083B7F583004077F788095
:100AFF0003B9080312083B3002057F2D02083B7F24
:100B0F00202008F87F2B2006F322920280CF286E38
:100B1F00756C6C2900D2011208003001F8C20178FF
:100B2F001830D50108F60208A62D5043495812086F
:100B3F00002403B405004001E4900B389312082CF5
:0D0B4F00743A12082CD20375180402098BA9
:100F88008B088A09890AAB0BAA0CA90D120E6EFEF2
:100F9800AB08AA09A90A120E6EFF6E702BEF600D3E
:100FA800E50F150F7002150E14450E70037F002211
:100FB8007401250AF50AE43509F5097401250DF5CA
:100FC8000DE4350CF50C80BEAB08AA09A90A120E6F
:100FD8006EFDD3EE6480F8ED64809840037F0122B3
:0F0FE800AB0BAA0CA90D120E6EFFC3ED9FFF22DB
:100F0800020B5CE493A3F8E493A34003F68001F298
:100F180008DFF48029E493A3F85407240CC8C333EA
:100F2800C4540F4420C8834004F456800146F6DFB9
:100F3800E4800B01020408102040809010FCE47E3D
:100F4800019360BCA3FF543F30E509541FFEE493AE
:100F5800A360010ECF54C025E060A840B8E493A375
:100F6800FAE493A3F8E493A3C8C582C8CAC583CAA0
:100F7800F0A3C8C582C8CAC583CADFE9DEE780BE58
:0110FF0000F0
:100E8700BB010CE58229F582E5833AF583E0225020
:100E970006E92582F8E622BBFE06E92582F8E2226A
:0D0EA700E58229F582E5833AF583E4932284
:100EB400BB010689828A83F0225002F722BBFE011D
:020EC400F32217
:100EC600FAE6FB0808E6F925F0F618E6CA3AF6222D
:100ED600D083D082F8E4937012740193700DA3A3AB
:100EE60093F8740193F5828883E4737402936860BF
:060EF600EFA3A3A380DFBF
:10105D00EFB40A07740D121068740A309811A8992C
:10106D00B8130CC2983098FDA899C298B811F630F3
:07107D0099FDC299F59922CB
:00000001FF
